:020000040800F2
:10000000D808002045010008F3280008090B000863
:100010008723000825030008913F00080000000026
:100020000000000000000000000000009130000807
:100030007D040008000000001D2B0008E9310008C5
:100040005F0100085F0100085F0100085F01000810
:100050005F0100085F010008A9050008ED05000820
:10006000350600087D0600085F0100085F010008F2
:100070005F0100085F0100085F0100085F010008E0
:100080005F0100085F0100085F0100085F010008D0
:100090005F0100085F0100085F0100085F010008C0
:1000A0005F0100085F0100085F0100083D320008A1
:1000B0005F010008093300085F0100085F010008C4
:1000C0005F0100085F0100085F0100085F01000890
:1000D0005F0100085F0100085F0100086D3D000836
:1000E0005F0100085F0100085F0100085F01000870
:1000F0005F0100085F0100085F0100085F01000860
:100100005F0100085F010008CD3300085F010008AF
:100110005F0100085F0100085F0100085F0100083F
:100120005F0100085F0100085F0100085F0100082F
:10013000DFF80CD000F040F8004800479D4100086F
:10014000D80800200648804706480047FEE7FEE73B
:10015000FEE7FEE7FEE7FEE7FEE7FEE7FEE7FEE777
:10016000ED3100083101000840EA01039B0703D08C
:1001700009E008C9121F08C0042AFAD203E011F8E6
:10018000013B00F8013B521EF9D2704730B50B46D7
:10019000014600202022012409E021FA02F59D42B7
:1001A00005D303FA02F5491B04FA02F52844151E8B
:1001B000A2F10102F1DC30BD064C074D06E0E0681B
:1001C00040F0010394E8070098471034AC42F6D39E
:1001D000FFF7B2FF205600084056000870B58C1893
:1001E00010F8015B15F0070301D110F8013B2A114B
:1001F00006D110F8012B03E010F8016B01F8016B38
:100200005B1EF9D12B0705D40023521E0DD401F833
:10021000013BFAE710F8013BCB1A921C03E013F8FC
:10022000015B01F8015B521EF9D5A142D8D3002031
:1002300070BD70477047704738B51F24E5022B46E4
:100240000AA250210820009400F030FC2B460DA299
:1002500064210820009400F029FC2B460FA278218D
:100260000820009400F022FC38BD000020205765D3
:100270006C636F6D6520546F2041524D4255532081
:1002800020000000687474703A2F2F7777772E4122
:10029000726D4275732E636F6D0000003230313025
:1002A000303632322D4C414E2053616D706C6500FA
:1002B0002DE9F8430026154D4FF01F084FF47849FB
:1002C000012700BF02F02AFD04464B4610A264211C
:1002D0000820CDF8008000F0E9FB03F01FFC022CA1
:1002E00004D0012C0CD0032C0CD000E0AF800E2EDB
:1002F000E8D3002000F026FCBDE8F84300F0E4B8A5
:10030000AF80F6E70020A880F3E700000801002096
:100310002020204175746F46756E63204F4B20205E
:1003200020000000FEE700000C49CA79521CD3B23D
:100330000022CB71012B02D0022B04D101E04864D2
:1003400001E0CA718864D1E91103984202D001200A
:10035000087200E00A72087A70470000540000201A
:100360000C498A79521CD3B200228B71012B02D026
:10037000022B04D101E0086301E08A714863D1E9EE
:100380000C03984202D00120C87100E0CA71C879FC
:1003900070470000B80000200C494A7A521CD3B2C2
:1003A00000224B72012B02D0022B04D101E0C86461
:1003B00001E04A720865D1E91303984202D0012096
:1003C000887200E08A72887A70470000540000202A
:1003D0000C490A7A521CD3B200220B72012B02D0B4
:1003E000022B04D101E0886301E00A72C863D1E9FD
:1003F0000E03984202D00120487200E04A72487A07
:1004000070470000B80000200C49CA7A521CD3B2D1
:100410000022CB72012B02D0022B04D101E04865EF
:1004200001E0CA728865D1E91503984202D0012023
:10043000087300E00A73087B704700005400002036
:100440000C498A7A521CD3B200228B72012B02D043
:10045000022B04D101E0086401E08A724864D1E90A
:100460001003984202D00120C87200E0CA72C87A14
:1004700070470000B80000207047704770473EB5D5
:100480006423B2FBF3F430348DF80440B2FBF3F490
:1004900003FB14220A23B2FBF3F430348DF8054039
:1004A000B2FBF3F403FB142230328DF80620002255
:1004B0008DF807204FF6FF7200924FF4784301AA9F
:1004C00000F0F4FA3EBD00002DE9F84300250826AF
:1004D000284600F037FB194C1F200090606A4FF649
:1004E000FF773B4602683146608800F0DFFA4FF044
:1004F000180846460DE04068009700EB05101F23E2
:1005000002683146608800F0D1FA6D1C1036ADB239
:10051000B6B2606A017AA942EDD8416820784FF6F8
:100520001F0201EB0011E16100920A6808EB001163
:100530003B46608800F0BAFABDE8F883100100205D
:10054000F8B5184C4FF6FF761825606A1F234168EE
:10055000207801EB0011E16100960A6805EB0011BB
:10056000608800F0A3FA616A20780A7A521E8242FB
:1005700001DC002000E0401C20704968C0B201EBA3
:1005800000114FF61F02E16100920A6805EB0011AD
:100590003346608800F08AFA024962781831207880
:1005A0008854F8BD1001002010B5012000F0B0F80B
:1005B000002816D00B498868896882070A484FEAE4
:1005C000C1710BD511B90188491E01E00188491C90
:1005D0000180BDE81040012000F074B80029F5D07A
:1005E000F1E710BD001001406A00002010B50220A4
:1005F00000F08EF8002817D00C4988688968C20777
:100600000B484FEA81710CD0002902DA0188491E9B
:1006100001E00188491C0180BDE81040022000F083
:1006200051B80029F5DBF1E710BD000000100140D2
:100630006A00002010B5042000F06AF8002817D0E6
:100640000C498868896802070B484FEA41710CD54C
:10065000002902DB0188491E01E00188491C018054
:10066000BDE81040042000F02DB80029F5DAF1E7CC
:1006700010BD0000001001406800002010B50820E7
:1006800000F046F8002817D00C49886889684207AE
:100690000B484FEA01710CD5002902DA0188491E86
:1006A00001E00188491C0180BDE81040082000F0ED
:1006B00009B80029F5DBF1E710BD0000001001408A
:1006C00068000020014908607047000014040140E0
:1006D0001CB50021022000F04DF90121022000F09C
:1006E00049F90221084600F045F90321022000F0F3
:1006F00041F90F20009000208DF8040010208DF8A3
:10070000050001208DF80600684600F011F81CBDB8
:10071000064A014600201268044B0A4014331B6845
:100720000B4202D0002A00D0012070470004014093
:1007300030B51A498379026853B30B6893430B6051
:100740000A1D13680468A343136002790A441368FE
:10075000046823431360114A083213680468A343F2
:100760001360131D1C680568AC431C604479102C91
:1007700005D021440A68006802430A6030BD116850
:10078000046821431160196800680143196030BD95
:100790000079084401689143016030BD00040140C4
:1007A000704770478000A0F1C0400029016802D066
:1007B00041F0010101E0024A114001607047000070
:1007C000FEFF0F0010B5D0E901121143D0E9032359
:1007D0001A4311434269114382691143C2691143AB
:1007E000026A1143426A1143826A1143C26A114389
:1007F000026B114302689200A2F1C042116081684D
:10080000082907D101688900A1F1C0410A6842F0B6
:1008100040020A60416BD1E9002342EA03128B686F
:100820008C891B0243EA04431A430B8A42EA0352AF
:100830000B7D896942EA03620A4301688900A1F1DC
:10084000C0414A60C16AB1F5804F08D000686FF0BE
:1008500070418000A0F1C040C0F8041110BD816B50
:10086000D1E9002342EA03128B680C8A1B0243EA97
:1008700004531A430B7D896942EA036200680A4304
:100880008000A0F1C040C0F8042110BD70470000F6
:100890002DE9F84F3020ADF800004FF010088DF82A
:1008A00003804FF002098DF8029069462E4800F04F
:1008B00075F84FF40070ADF800001824DFF8ACB004
:1008C0008DF8034003258DF802506946584600F024
:1008D00065F84FF48067ADF8007004268DF803606A
:1008E0006946584600F05AF8ADF80070DFF880A06D
:1008F0008DF803408DF802506946504600F04EF8DE
:100900007002ADF800008DF803606946504600F0B3
:1009100045F80F27ADF800708DF803408DF80250B0
:100920006946584600F03AF8B801ADF800008DF875
:1009300003408DF8025069460B4800F02FF8ADF8DF
:1009400000608DF803808DF802906946504600F0F3
:1009500025F8ADF800708DF803606946024800F094
:100960001DF8BDE8F88F00000010014000080140AC
:10097000000C014010B58A0721F003040649130F4B
:1009800021440F228C689A4094438C608A68984076
:1009900002438A6010BD000000000140F0B5CA7833
:1009A000002502F00F03D20601D58A7813430A7896
:1009B0004FF00F0E12F0FF0F4FF001021CD0046831
:1009C0000F8802FA05F63740B74211D14FEA850C7D
:1009D0000EFA0CF724EA070703FA0CF43C43CF782D
:1009E000282F02D0482F02D002E0466100E00661C5
:1009F0006D1C082DE4D304600C88FF2C1ED94468BC
:100A00005FF0000606F1080702FA07F50F882F408D
:100A1000AF420FD14FEA860C0EFA0CF7BC4303FA33
:100A20000CF73C43CF78282F00D14561CF78482F71
:100A300000D10561761C082EE4D34460F0BD0000AF
:100A4000F0B5144C002801DAE36900E06368420D58
:100A5000120185B2C0F301579540C0F30346032F3E
:100A600005D0C2020AD50322B240934307E023F027
:100A70007062636823F07063636002E0AB4343F02D
:100A8000706201B12A43002801DAE261F0BD6260C0
:100A9000F0BD0000000001400246002092680A42BA
:100AA00000D0012070470161704700002DE9F84334
:100AB0009946DDF8207016460D4604464FF49C78A2
:100AC00016F8012B4B4629462046009702F064F8A1
:100AD000444502D20834A4B207E0E02D4FF00004F0
:100AE00002D21035ADB200E0002530780028E7D101
:100AF000BDE8F883034A02EB01111022A1F5007151
:100B0000FFF732BBF24C0008FEE77047704710B5A4
:100B100002F004F9062814D2DFE800F0130F0F03E7
:100B2000070BBDE8104002F04DBABDE8104003F0DD
:100B3000FDB9BDE81040FFF703BDBDE8104002F06D
:100B4000A9BA10BD70B505461B48002400780A28D4
:100B500011D00B280FD00021084601F0A7FB4FF061
:100B6000C0412220088015484FF496310580641C4E
:100B70008C42FBD370BD0021022001F0DDFB00217F
:100B8000032001F0D9FB0021042001F0D5FBEF2167
:100B9000052001F0D1FB0021062001F0CDFB002152
:100BA000072001F0C9FB0121082001F0C5FB3F210E
:100BB000092001F0C1FBD2E704010020000002601F
:100BC00070B596B00F250F9500241095CDE91154FE
:100BD0001020CDE90240139404940002CDE90840AE
:100BE0001494159407940FAE00940194CDE90C462B
:100BF00006940A94059468460B94FFF7E3FD0A20D7
:100C0000CDE90F50CDE911041394149468460E9663
:100C10001594FFF7D7FD01210020FFF7C3FD16B0A3
:100C200070BD00002DE9F84F4CF63370ADF80000B0
:100C30004FF003088DF8028018208DF803006946F4
:100C4000FE48FFF7ABFE4FF68070ADF80000694636
:100C5000FB48FFF7A3FE8020ADF800006946F74887
:100C6000FFF79CFEFFF7ACFF4FF0C042F5490020B4
:100C70001080F54B18884880A0F513474FF4807416
:100C800040F2272940F2077540F23F164FF4887B67
:100C9000253F7CD0A0F51347283FFAD0A0F5134795
:100CA000203F75D0B0F5134FFBD0A0F5134C4FF497
:100CB0000177BCF1310C6CD0A0F5194C40F205580D
:100CC000BCF1190C66D0A0F5A85CBCF1050C01D0F4
:100CD00040457DD1092008700021072001F02CFB40
:100CE000322003F021FA4FF48E71122001F024FB20
:100CF0000121A42001F020FB0F21082001F01CFBA2
:100D000008210A2001F018FB08210D2001F014FB36
:100D10002946302001F010FB0721312001F00CFBA7
:100D200040F20361322001F007FB4FF4E0673946DF
:100D3000332001F001FB40F20221342001F0FCFAE3
:100D40000221352001F0F8FA41F60F71362001F04A
:100D5000F3FA2946372001F0EFFA0021382001F09C
:100D6000EBFA0021392001F0E7FA29463A2001F098
:100D7000E3FA00213B2001F0DFFA07213C2001F0DB
:100D8000DBFA00213D2001F0D7FA322003E0B0E089
:100D90009EE2B7E141E303F0C7F90121072001F02A
:100DA000CBFA0121172001F0C7FA322003F0BCF979
:100DB0004FF4BD51102001F0BFFA40F2172111206D
:100DC00001F0BAFA4FF48F71122001F0B5FA00E089
:100DD000A9E34FF47061132001F0AEFA00212A203C
:100DE00001F0AAFA0A21292001F0A6FA4FF49F7116
:100DF000122001F0A1FA0021502001F09DFAEF210C
:100E0000512001F099FA0021522001F095FA314663
:100E1000532001F091FA4FF41C51602001F08CFA3C
:100E20000121612001F088FA00216A2001F084FA92
:100E30000021802001F080FA0021812001F07CFA5D
:100E40000021822001F078FA0021832001F074FA59
:100E50000021842001F070FA0021852001F06CFA55
:100E60001321902001F068FA4FF44071922001F0B4
:100E700063FA0521932001F05FFA0021952001F02B
:100E80005BFA0021972001F057FA0021982001F029
:100E900053FA2146012001F04FFA3946022001F0B1
:100EA0004BFA41F23001032001F046FA0021042000
:100EB00001F042FA00210C2001F03EFA00210F203F
:100EC00001F03AFA0021202001F036FA0021212019
:100ED00001F032FA2121072001F02EFAC82003F098
:100EE00023F96121072001F027FAC82003F01CF93B
:100EF000FEE3012008701021E72001F01DFA012116
:100F0000002001F019FA2146012001F015FA4FF4F2
:100F1000E061022001F010FA41F23001032001F0FB
:100F20000BFA0021042001F007FA40F20721082003
:100F300001F002FA0021092001F0FEF900210A2047
:100F400001F0FAF901210C2001F0F6F900210D2041
:100F500001F0F2F900210F2001F0EEF9002110203C
:100F600001F0EAF90721112001F0E6F90021122031
:100F700001F0E2F90021132001F0DEF9322003F044
:100F8000D3F841F29051102001F0D6F949461120D2
:100F900001F0D2F9322003F0C7F89C21122001F0B1
:100FA000CBF9322003F0C0F84FF4C851132001F000
:100FB000C3F92321292001F0BFF90E212B2001F0D4
:100FC000BBF9322003F0B0F80021202001F0B4F981
:100FD0000021212001F0B0F9322003F0A5F807210B
:100FE000302001F0A9F92946312001F0A5F90621A8
:100FF000322001F0A1F940F20471352001F09CF992
:1010000041F60471362001F097F90421372001F0F0
:1010100093F90021382001F08FF940F20671392050
:1010200001F08AF940F201713C2001F085F90F21AD
:101030003D2001F081F9322008E000000014014059
:1010400000180140040100200000026003F06CF869
:101050000021502001F070F9EF21512001F06CF9CE
:101060000021522001F068F93146532001F064F963
:101070004FF42741602001F05FF90121612001F068
:101080005BF900216A2001F057F90021802001F06E
:1010900053F90021812001F04FF90021822001F055
:1010A0004BF90021832001F047F90021842001F051
:1010B00043F90021852001F03FF91021902001F033
:1010C0003BF90021922001F037F90321932001F030
:1010D00033F95946952001F02FF90021972001F0AE
:1010E0002BF90021982001F027F940F23311072055
:1010F00001F022F90021202001F01EF90021212019
:1011000001F0CCB881F8008041F21401E72001F031
:1011100013F92146012001F00FF94FF4007102206C
:1011200001F00AF941F23001032001F005F940F223
:101130000221082001F000F90021092001F0FCF84B
:1011400000210A2001F0F8F800210C2001F0F4F849
:1011500000210D2001F0F0F800210F2001F0ECF843
:101160000021102001F0E8F80721112001F0E4F837
:101170000021122001F0E0F80021132001F0DCF83A
:10118000C82002F0D1FF41F29061102001F0D4F8A4
:101190004946112001F0D0F8322002F0C5FF0C21A1
:1011A000122001F0C9F8322002F0BEFF4FF40061B6
:1011B000132001F0C1F81121292001F0BDF80B2105
:1011C0002B2001F0B9F8322002F0AEFF00212020E0
:1011D00001F0B2F80021212001F0AEF8002130200A
:1011E00001F0AAF84FF483742146312001F0A4F8ED
:1011F0000021322001F0A0F83946352001F09CF89A
:1012000041F20A61362001F097F82946372001F0B3
:1012100093F82146382001F08FF82946392001F053
:101220008BF840F202413C2001F086F840F60F4175
:101230003D2001F081F80021502001F07DF8EF21E0
:10124000512001F079F80021522001F075F8314663
:10125000532001F071F84FF41C51602001F06CF83C
:101260000121612001F068F800216A2001F064F892
:101270000021802001F060F80021812001F05CF85D
:101280000021822001F058F80021832001F054F859
:101290000021842001F050F80021852001F04CF855
:1012A0001021902001F048F84FF4C061922001F025
:1012B00043F82121072001F03FF8322002F034FFEB
:1012C0006121072001F038F8322002F02DFFFDE304
:1012D00000200870014601F02FF82146012001F09E
:1012E0002BF84FF4E061022001F026F841F21801DA
:1012F000032001F021F80021042001F01DF840F244
:101300000221082001F018F80021092001F014F84A
:1013100000210A2001F010F801210C2001F00CF846
:1013200000210D2001F008F800210F2001F004F841
:10133000642002F0F9FE40F20111072000F0FCFFEA
:10134000642002F0F1FE4FF48651102000F0F4FF0B
:101350000721112000F0F0FF5C465946122000F0F2
:10136000EBFF4FF43061132000F0E6FF002129204D
:1013700000F0E2FF44F210012B2000F0DDFF00211D
:10138000502000F0D9FFEF21512000F0D5FF0021BF
:10139000522000F0D1FF3146532000F0CDFF4FF432
:1013A0001C51602000F0C8FF0121612000F0C4FF43
:1013B00000216A2000F0C0FF0021802000F0BCFF67
:1013C0000021812000F0B8FF0021822000F0B4FF4E
:1013D0000021832000F0B0FF0021842000F0ACFF4A
:1013E0000021852000F0A8FF1021902000F0A4FF2C
:1013F0000021922000F0A0FF0121932000F09CFF2B
:101400002146952000F098FF0021972000F094FFDE
:10141000002198203CE3072072E60D200870062189
:10142000282000F089FF0121002000F085FF002125
:10143000102000F081FF47F2EF21012000F07CFF37
:101440004FF4C061022000F077FF46F638210320F8
:1014500000F072FF46F67401112000F06DFF0021CC
:101460000F2000F069FF45F208310B2000F064FF07
:1014700003210C2000F060FF0A210D2000F05CFF2A
:101480004FF438510E2000F057FFBE211E2000F00F
:1014900053FF4FF40041252000F04EFF4FF4F04180
:1014A000262000F049FF7821272000F045FF002189
:1014B0004E2000F041FF00214F2000F03DFF40F69C
:1014C000D901122000F038FF0021302000F034FF55
:1014D0004FF48271312000F02FFF2146322000F0BE
:1014E0002BFF40F205342146332000F025FF414612
:1014F000342000F021FF2146352000F01DFF294651
:10150000362000F019FF611F372000F015FF4FF45F
:1015100090513A2000F010FF4FF400613B2000F0A2
:101520000BFF332177E7A0F5094C40F2025940F256
:10153000023ABCF1890C1DD0A0F5094CBCF1990C04
:101540007ED0A0F5A847083F7BD0A0F58A47313F61
:1015500078D0A0F58A47353F75D0472874D0A0F5DC
:10156000EE47833F71D06720108018884880472855
:101570006CD0FDE3052008700121002000F0DCFEA6
:10158000322002F0D1FD4AF6A401032000F0D4FE7F
:10159000322002F0C9FD00210C2000F0CDFE3220E7
:1015A00002F0C2FD40F60C010D2000F0C5FE322015
:1015B00002F0BAFD4FF42C510E2000F0BDFE322097
:1015C00002F0B2FDB0211E2000F0B6FE322002F083
:1015D000ABFD42F63F31012000F0AEFE322002F0BA
:1015E000A3FD4FF4C061022000F0A6FE322002F0FD
:1015F0009BFD0021102000F09FFE322002F094FDA0
:1016000046F27001112000F097FE322002F08CFDAE
:101610000021052000F090FE322002F085FD00211F
:10162000062000F089FE322002F07EFD4EF61C718D
:10163000162000F081FE322002F076FD032106E044
:10164000C9E087E129E2D1E2FEE376E3FDE317207A
:1016500000F072FE322002F067FD40F233110720E5
:1016600000F06AFE322002F05FFD00210B2000F046
:1016700063FE322002F058FD00210F2000F05CFED6
:10168000322002F051FD0021412000F055FE3220B1
:1016900002F04AFD0021422000F04EFE322002F00E
:1016A00043FD0021482000F047FE322002F03CFDBF
:1016B0003146492000F040FE322002F035FD002185
:1016C0004A2000F039FE322002F02EFD00214B208E
:1016D00000F032FE322002F027FD4FF46F4144202B
:1016E00000F02AFE322002F01FFD0021452000E01C
:1016F000D0E100F021FE322002F016FD31464620F6
:1017000000F01AFE322002F00FFD2946302000F0D2
:1017100013FE322002F008FD3946312000F00CFEA5
:10172000322002F001FD3946322000F005FE322061
:1017300002F0FAFC4C464946332000F0FDFD322011
:1017400002F0F2FC40F20751342000F0F5FD3220A7
:1017500002F0EAFC3946352000F0EEFD322002F0BE
:10176000E3FC3946362000F0E7FD322002F0DCFCD5
:101770002146372000F0E0FD322002F0D5FC54462F
:1017800051463A2000F0D8FD322002F0CDFC21462F
:101790003B2000F0D1FD322002F0C6FC00212320C6
:1017A00000F0CAFD322002F0BFFC0021242000F02E
:1017B000C3FD322002F0B8FC4FF40041252000F0B8
:1017C000BBFD322002F0B0FC00214F2000F0B4FD40
:1017D00000214E2094E4042008700621282000F007
:1017E000ABFD0121002000F0A7FD4AF6A461032013
:1017F00000F0A2FD04210C2000F09EFD0C210D2024
:1018000000F09AFD4FF420510E2000F095FDB52117
:101810001E2000F091FD43F63F31012000F08CFDC9
:101820004FF4C061022000F087FD0021102000F07D
:1018300083FD46F63001112000F07EFD00210520D9
:1018400000F07AFD0021062000F076FD4EF61C71B6
:10185000162000F071FD3321072000F06DFD0021FE
:101860000B2000F069FD00210F2000F065FD002134
:10187000412000F061FD0021422000F05DFD0021CB
:10188000482000F059FD3146492000F055FD002167
:101890004A2000F051FD00214B2000F04DFD4FF497
:1018A0006F41442000F048FD0021452000F044FD38
:1018B0003146462000F040FD00214E2000F03CFD66
:1018C00000214F2000F038FD2946302000F034FD83
:1018D00040F20221312000F02FFD3946322000F085
:1018E0002BFD4C464946332000F026FD40F20751BF
:1018F000342000F021FD3946352000F01DFD394629
:10190000362000F019FD2146372000F015FD544621
:1019100051463A2000F010FD21463B2000F00CFD1E
:101920000021232000F008FD0021242000F004FD08
:101930004FF40041252000F0FFFC4FF4E041262049
:1019400000F0FAFC4BF2EB01202000F0F5FC7C21CA
:10195000272061E5082008702146012000F0ECFCFA
:101960004FF4E061022000F0E7FC41F23001032077
:1019700000F0E2FC0021042000F0DEFC40F2072130
:10198000082000F0D9FC0021092000F0D5FC00213E
:101990000A2000F0D1FC00210C2000F0CDFC002139
:1019A0000D2000F0C9FC00210F2000F0C5FC322002
:1019B00002F0BAFB40F20111072000F0BDFC32201A
:1019C00002F0B2FB41F2B061102000F0B5FC012141
:1019D000112000F0B1FC0121172000F0ADFC4FF404
:1019E0009C71122000F0A8FC4FF40061132000F05D
:1019F000A3FC0921292000F09FFC09212A2000F0E6
:101A00009BFC0021A42000F097FC0021502000F056
:101A100093FCEF21512000F08FFC0021522000F0B8
:101A20008BFC3146532000F087FC4FF41C516020A2
:101A300000F082FC0321612000F07EFC00216A207E
:101A400000F07AFC0021802000F076FC002181204B
:101A500000F072FC0021822000F06EFC0021832047
:101A600000F06AFC0021842000F066FC0021852043
:101A700000F062FC1321902000F05EFC0021922017
:101A800000F05AFC0321932000F056FC59469520A3
:101A900000F052FC40F27311BDE4072008700121F0
:101AA000002000F049FC4FF4C561102000F044FC18
:101AB0000621122000F040FC40F63221132000F0F5
:101AC0003BFC4021112000F037FC00E0E9E150210F
:101AD000152000F031FC1621122000F02DFC3220E0
:101AE00002F022FB45F26061102000F025FC32205C
:101AF00002F01AFB42F64E21132000F01DFC214695
:101B0000012000F019FC4FF44071022000F014FC99
:101B100041F23001032000F00FFC40F202210820C6
:101B200000F00AFC00210A2000F006FC0021302011
:101B300000F002FC40F20241312000F0FDFB4FF4C6
:101B40008371322000F0F8FB4FF4E061332000F0A5
:101B5000F3FB4FF48271342000F0EEFB40F20131D0
:101B6000352000F0E9FB2946362000F0E5FB40F285
:101B70000531372000F0E0FB4FF40271382000F00F
:101B8000DBFB40F60B71392000F0D6FB322002F06F
:101B9000CBFA0221412000F0CFFB4FF41C51602012
:101BA00000F0CAFB0121612000F0C6FB40F21911D0
:101BB000902000F0C1FB4FF48571922000F0BCFB37
:101BC0000421932000F0B8FB2146A02000F0B4FBD4
:101BD000322002F0A9FA40F23311072000F0ACFBEA
:101BE000322002F0A1FA0021A02057E30C20087057
:101BF0003021152000F0A0FB10219A2000F09CFB62
:101C00002021112000F098FB43F22841102000F021
:101C100093FB0221122000F08FFB41F238011320C8
:101C200000F08AFB282002F07FFA1221084600F01B
:101C300083FB282002F078FA43F22041102000F0C4
:101C40007BFB43F24501132000F076FB462002F0B7
:101C50006BFA0021302000F06FFB40F2024131208E
:101C600000F06AFB40F20731322000F065FB4FF4D0
:101C70004171332000F060FB0421342000F05CFB54
:101C800040F20141352000F057FB2946362000F094
:101C900053FB40F20531372000F04EFB4FF4C26594
:101CA0002946382000F048FB2946392000F044FB43
:101CB0002146012000F040FB4FF44071022000F06B
:101CC0003BFB41F23001032000F036FB40F60801F7
:101CD000082000F031FB08210A2000F02DFB4FF412
:101CE0001C51602000F028FB0121612000F024FB42
:101CF0004FF49F71902000F01FFB2146922000F0CE
:101D00001BFB2146932000F017FB4FF44051A0200D
:101D100000F012FB1021A32000F00EFB0121072090
:101D200000F00AFB2121072000F006FB23210720F9
:101D300000F002FB33210720B1E0062008700121EA
:101D4000FF2000F0F9FA0821F32000F0F5FA21460F
:101D5000012000F0F1FA4FF4E061022000F0ECFA0B
:101D600041F23001032000F0E7FA5146082000E07C
:101D700096E200F0E1FA40F20721082000F0DCFAD8
:101D80000021092000F0D8FA00210A2000F0D4FA3E
:101D90000021102000F0D0FA0521112000F0CCFA2B
:101DA0000021122000F0C8FA0021132000F0C4FA2C
:101DB000322002F0B9F941F2B021102000F0BCFA53
:101DC000322002F0B1F90721112000F0B5FA3220DB
:101DD00002F0AAF98B21122000F0AEFA322002F0B4
:101DE000A3F94FF4B851132000F0A6FA322002F004
:101DF0009BF92221292000F09FFA0021302000F0D9
:101E00009BFA2946312000F097FA4146322000F033
:101E100093FA40F20711352000F08EFA082136209F
:101E200000F08AFA0021372000F086FA40F20224FE
:101E30002146382000F080FA4FF48371392000F0F9
:101E40007BFA21463C2001E02EE00DE100F074FA1F
:101E50004FF481613D2000F06FFA322002F064F906
:101E60000021502000F068FAEF21512000F064FAC0
:101E70000021522000F060FA3146532000F05CFA55
:101E80004FF42741602000F057FA0121612000F053
:101E900053FA3321902000F04FFA0B212B2000F051
:101EA0004BFA40F23311F7E50A2008700021EA20CE
:101EB00000F042FA2021EB2000F03EFA0C21EC2049
:101EC00000F03AFAC421ED2000F036FA4021E82073
:101ED00000F032FA3821E92000F02EFA0121F12039
:101EE00000F02AFA1021F22000F026FAA321272080
:101EF00000F022FA0121402000F01EFA00214120CA
:101F000000F01AFA0021422000F016FA10214320B6
:101F100000F012FA0E21442000F00EFA2421452090
:101F200000F00AFA0421462000F006FA502147206A
:101F300000F002FA0221482000F0FEF913214920A6
:101F400000F0FAF919214A2000F0F6F919214B2086
:101F500000F0F2F916214C2000F0EEF91B21502080
:101F600000F0EAF93121512000F0E6F92F2152204A
:101F700000F0E2F93F21532000F0DEF93F21542028
:101F800000F0DAF93E21552000F0D6F92F21562035
:101F900000F0D2F97B21572000F0CEF9092158201A
:101FA00000F0CAF90621592000F0C6F906215A208E
:101FB00000F0C2F90C215B2000F0BEF91D215C206D
:101FC00000F0BAF9CC215D2000F0B6F918211B20F1
:101FD00000F0B2F901211A2000F0AEF915212420F9
:101FE00000F0AAF95021252000F0A6F98B2123202A
:101FF00000F0A2F93621182000F09EF901211920E5
:1020000000F09AF90021012000F096F988211F20A4
:1020100000F092F9322002F087F880211F2000F0B2
:102020008BF9322002F080F890211F2000F084F913
:10203000322002F079F8D0211F2000F07DF9322003
:1020400002F072F80521172000F076F90021362001
:1020500000F072F93821282000F06EF9322002F0E9
:1020600063F83C21282019E10B2008700821422048
:1020700000F062F9B421462000F05EF943214720C8
:1020800000F05AF91321482000F056F94721492061
:1020900000F052F914214A2000F04EF936214B206D
:1020A00000F04AF903214C2000F046F946214D206A
:1020B00000F042F905214E2000F03EF910214F209A
:1020C00000F03AF90821502000F036F90A21512099
:1020D00000F032F90021022000F02EF90021032047
:1020E00000F02AF90021042000F026F9EF21052054
:1020F00000F022F90021062000F01EF9002107203F
:1021000000F01AF90121082000F016F93F210920FA
:1021100000F012F90A2002F007F80621012000F071
:102120000BF9C821162000F007F99521232000F0B3
:1021300003F99521242000F0FFF8FF21252000F06D
:10214000FBF80221272000F0F7F80221282000F0F8
:10215000F3F80221292000F0EFF802212A2000F0F4
:10216000EBF802212C2000F0E7F802212D2000F0EE
:10217000E3F801213A2000F0DFF801213B2000F0D4
:10218000DBF8F0213C2000F0D7F800213D2000F0E2
:10219000D3F8142001F0C8FF3821352000F0CCF826
:1021A0007821362000F0C8F838213E2000F0C4F82D
:1021B0000F21402000F0C0F8F021412000F0BCF8D1
:1021C0000021382000F0B8F84921192000F0B4F8B7
:1021D0000A21932000F0B0F80A2001F0A5FF202189
:1021E000084600F0A9F803211D2000F0A5F8002101
:1021F0001E2000F0A1F809211F2000F09DF85321B6
:10220000442000F099F81021452000F095F80A20AC
:1022100001F08AFF04211C2000F08EF8142001F048
:1022200083FF8021432000F087F8052001F07CFF28
:102230000A211B2000F080F8282001F075FF1221F0
:102240001B2000F079F8282001F06EFF7F219020FC
:1022500000F072F80421262000F06EF8282001F02A
:1022600063FF2421262000F067F82C21262000F0AF
:1022700063F8282001F058FF0821702000F05CF876
:102280003C21262000F058F80221572000F054F895
:102290000021552000F050F80021572000F04CF8A4
:1022A000BDE8F84F322001F03FBF000070B5A0F24A
:1022B0003F10404285B217480C460078001F0A289C
:1022C00006D2DFE800F00C0C050505051313052503
:1022D0002146202000F030F82946212014E0214634
:1022E0004E2000F029F829464F200DE0210A022057
:1022F00000F022F82146032000F01EF8290A0620EB
:1023000000F01AF829460720BDE8704000F014B824
:1023100070BD00000401002010B51446B0F5A07F88
:1023200009D2F02907D2FFF7C1FF2146BDE81040CE
:10233000222000F001B810BD4FF0C04210800148CB
:10234000018070470000026000B901200A4904239F
:102350000A8E521C92B20A86824201D1074808E0D6
:10236000B2EB400F06D100200886054908700348EB
:10237000001D0360704700000A000020100C01409F
:10238000000000207047FEE70549064AA1F1B800A9
:102390004162437842F823109039C16170470000D0
:1023A000C8010020C804002070B5114C012600258A
:1023B000208B38B184F80250D4E90D10884205D141
:1023C000E56370BDA67000F0E3F9F5E707DDA0EB6B
:1023D0000100E063A0780028F3D0A67170BDA1EBE6
:1023E0000000E063A0780028F8D0A57170BD00005F
:1023F0005400002070B5114C01260025E08938B149
:1024000084F80150D4E90810884205D1A56270BD56
:10241000667000F0F5F9F5E707DDA0EB0100A062BA
:1024200060780028F3D0667170BDA1EB0000A06257
:1024300060780028F8D0657170BD0000B8000020F9
:10244000F0B53748374D02460023B2F91E20D0E9D7
:102450000D674FF0804105F20244BE4201D1068B68
:10246000A6B14384067835F812506EB36E088E8696
:10247000A5F2DC556D426D080D8734F812406508F1
:102480008D87A4F2DC546442640828E00364C363CB
:1024900002234370438C1E2B13D935F812309D084C
:1024A0008D86A3F2DC535B429B080B8734F8122025
:1024B00093088B87A2F2DC5252429208A1F8402086
:1024C0001FE05B1C43841CE08D86A5F2DC556D4249
:1024D0000D8734F812408C87A4F2DC546442A1F8D2
:1024E00040400F49C5784FF40074096B012D0BD0A3
:1024F000083A12B24371491EC2830163002A00DC0C
:10250000C483016B4163F0BD0125083212B24571ED
:10251000491CC2830163A242F3DBC383F1E70000DD
:1025200054000020EE4400082DE9F0433048324DBD
:1025300001462E1DD0E9088C371D2E4C2F4B002252
:10254000B1F9141007F10409E04504D1B0F80EC048
:10255000BCF1000F23D0028334F811402C80A4F288
:10256000DC546442348033F811303B80A3F2DC53F6
:102570005B42A9F800301E4B85784FF40074DB698C
:10258000012D2AD0083909B202715B1E8182C36114
:10259000002900DC8482C1690162BDE8F083C26267
:1025A000826202220270028B642A13D934F811204D
:1025B00094082C80A2F2DC5252429208328033F806
:1025C00011108A083A80A1F2DC5149428A08A9F820
:1025D0000020E0E7521C0283DDE70125083109B243
:1025E00005715B1C8182C361A142D4DB8282D2E788
:1025F000B8000020EE44000834340140F0480008E0
:1026000070B52E4CE06BFDF7FFFE012550B1A08B9D
:102610004142206C00EB0112E16B8A4202DA8142F6
:1026200000DC6570218B264AA07932F811102184D4
:10263000E0704FF6FF70401A22490880E06BC11726
:1026400000EB11700011FDF7A7FE002813D02079D0
:10265000002220B101280ED1208B48B92CE0E16B7B
:10266000002909DD208BB1EB001F05DC002802D01A
:10267000401E2083627070BDA08BB1EB001F08DD8F
:10268000236C424203EB02128A4202DB022060709A
:1026900070BD226C434202EB03138B4208DA914275
:1026A00006DC218B8142F3D2491C2183657070BD09
:1026B0009142FCDD257170BD227170BD5400002077
:1026C000E24100080E00002070B52E4CA06AFDF714
:1026D000B7FE012550B1608A4142E06A00EB011269
:1026E000A16A8A4202DA814200DC2570E189264A29
:1026F000607932F81110E182A0704FF6FF70401A35
:1027000022490880A06AC11700EB11700011FDF783
:102710005FFE002813D0E078002220B101280ED1FE
:10272000E08948B92CE0A16A002909DDE089B1EB14
:10273000001F05DC002802D0401EE081227070BD21
:10274000608AB1EB001F08DDE36A424203EB02122C
:102750008A4202DB0220207070BDE26A434202EB33
:1027600003138B4208DA914206DCE1898142F3D2FD
:10277000491CE181257070BD9142FCDDE57070BDA2
:10278000E27070BDB8000020E24100081000002097
:10279000F0B51A4800230246D0E90D145679957811
:1027A00001228C4206DD671A0764012E12D00271E5
:1027B00005B182718C4205DA091B016466B10271B0
:1027C00005B18371016C802908DCCC1701EB94649E
:1027D000A4090BE00371EBE70371F1E7448BB1EB64
:1027E000441F03DACC1701EBD46464098483B1F588
:1027F000A06F01DC0270F0BD0370F0BD540000203A
:10280000F0B5184801250446D0E908132279647808
:1028100000268B4206DD5F1AC762012A12D0C570FE
:1028200004B145718B4205DAC91AC16262B1C57043
:1028300004B14671C16A802908DCCA1701EB9261B4
:1028400089090BE0C670EBE7C670F1E7028AB1EBCD
:10285000421F05DACA1701EBD26149094182F0BD76
:102860004282F0BDB800002070B50A4C627B504334
:10287000A27B0001B0FBF2F045182846E565FDF7A4
:1028800053FD002804D0A563BDE87040FFF780BF6A
:1028900070BD00005400002010B5FFF7D1FDFFF718
:1028A00083FDBDE81040FFF7ABBE000070B50B4CD8
:1028B000227B5043627B0001B0FBF2F0451805F526
:1028C00080652846A564FDF74BFD002804D06562AD
:1028D000BDE87040FFF794BF70BD0000B800002055
:1028E00010B5FFF721FEFFF785FDBDE81040FFF7AB
:1028F000EBBE7047F8B500214FF0006000F0C0F863
:102900004FF4A06000F0B2F800258DF800508DF86B
:102910000150684600F078F806208DF800008DF828
:10292000015001248DF802408DF80340684600F004
:102930006BF807208DF800008DF801508DF80240EB
:102940008DF80340684600F05FF808208DF800001D
:102950008DF801508DF802408DF80340684600F074
:1029600053F809208DF800008DF801508DF80240D1
:102970008DF80340684600F047F88DF800408DF868
:1029800001508DF802508DF80340684600F03CF885
:102990001B208DF800008DF801408DF802508DF855
:1029A0000340684600F030F81D208DF80000022634
:1029B0008DF801608DF80250684600F025F832204D
:1029C0008DF800008DF801608DF80250684600F027
:1029D0001BF825208DF8000003208DF801008DF8EC
:1029E00002608DF80340684600F00EF827208DF84D
:1029F00000008DF801508DF802608DF803406846A4
:102A000000F002F8F8BD000070B50F23C47801781B
:102A10000122F4B1144C2468457804F4E064C4F550
:102A2000E064240AC4F10406E3408478B5401C4005
:102A30002C4301F1E021230181F80034007800F0FB
:102A40001F018A404009800000F1E020C0F8002109
:102A500070BD01F01F0082404809800000F1E020B5
:102A6000C0F8802170BD00000CED00E00249084371
:102A700002490860704700000000FA050CED00E014
:102A8000024A1140014302480160704780FFFF1F66
:102A900008ED00E0F8B51F20C3020090002518A241
:102AA00064210820FEF702F8FF261B4C00F036F9DF
:102AB000042808D0052809D003280DD0022809D001
:102AC000012809D009E02078401C01E02078401E50
:102AD000207002E0267000E00F2500212078FFF72B
:102AE000C3FE22781421B420FDF7C9FC0E2DDDD3DE
:102AF0000020FEF727F8BDE8F840FDF7E5BC000030
:102B0000202020202050616E46756E63204F4B20A0
:102B10002020202000000000080100207047000055
:102B2000F8B51F20C3020090002514A264210820DC
:102B3000FDF7BCFF174CFF2600F0F0F8042810D07A
:102B4000052811D0032813D0022814D0012801D061
:102B50000E2DF1D30020FDF7F5FFBDE8F840FDF79D
:102B6000B3BCE078401C01E0E078401EE070EFE785
:102B70000020E070EEE7E670EAE700002020205336
:102B8000656E6441646472657373205345542020FC
:102B900000000000080100202DE9FF5F8946804603
:102BA0009B4611466846FDF7A5FF00254FEA0D0A32
:102BB00000241AF8057009EB050600BFC4F10700F0
:102BC00027FA00F0C00708EB0400B1B280B201D0D0
:102BD0005A4600E00E9AFFF79FFB641CA4B2082C33
:102BE000ECD36D1CADB2102DE2D3BDE8FF9F000009
:102BF000044A0029516901D0014300E08143516139
:102C00007047000000100240044A0029D16901D039
:102C1000014300E08143D161704700000010024091
:102C2000044A0029916901D0014300E08143916188
:102C3000704700000010024010B501210802FFF7A4
:102C4000D7FF01210448FFF7DFFFBDE81040012155
:102C500047F67D00FFF7E4BF0F00040030B51F49C1
:102C60004A6812F00C031E4A03D0042B01D0082B33
:102C700021D002604A680F231A4C03EA1212A35CA7
:102C80000268DA4042604B68072505EA1323E35CDB
:102C900022FA03F383604B6805EAD323E35CDA404E
:102CA000C2604968032303EA9131231F595CB2FBD8
:102CB000F1F1016130BD4A684B6802F470124FF0C7
:102CC000020413F4803F04EB924202D04B689B0352
:102CD00001D5054B00E0024B5A43CAE70010024001
:102CE00000127A004400002000093D0003480088DB
:102CF0000249091F098840EA014070471C2800402A
:102D00000548818E491C89B28186022903D10021A0
:102D10008186FDF7FCBE70470A0000202DE9F041D6
:102D2000454CDFF818810121E088401CE0804046D6
:102D3000FDF7B2FE01264FF496770025D8B3E58063
:102D4000A581A0880221401CA0804046FDF7A4FE7A
:102D500090B3A580E58120890421401C2081404654
:102D6000FDF79AFE48B32581258260890821401C21
:102D700060814046FDF790FE78B365816582012150
:102D800044464046FDF788FE002812D00221204626
:102D9000FDF782FE00280CD004212046FDF77CFEC2
:102DA000002806D008212046FDF776FE002800D036
:102DB0000020BDE8F08101E010E01EE0E08801287D
:102DC00005D0A18929B11C2803D9E580B9E70320E2
:102DD000EFE7B842B5D9A681B3E71DE0A088012886
:102DE00005D0E18929B11C2803D9A580B3E70220C9
:102DF000DFE7B842AFD9E681ADE72089012805D0E9
:102E0000218A29B11C2803D92581AEE70420D0E707
:102E1000B842AAD92682A8E76089012805D0618A2C
:102E200029B11C2803D96581A9E70520C1E7B8426B
:102E3000A5D96682A3E70000100100200018014018
:102E4000F8B51F20C302009000240DA264210820C1
:102E5000FDF72CFE4FF408654FF47F46FFF75EFF49
:102E6000032801D0012800D10F2433460BA2B4213E
:102E700012200095FDF71AFE0E2CEFD3F8BD0000CE
:102E80002020444D58205265636569766546756E0D
:102E90006320534554204F4B00000000444D5835EB
:102EA00031323A0070B501260025344C3EE0401E18
:102EB00020660520608347F29030C4E90D50012060
:102EC00001F040F9206E6421B0FBF1F201FB120029
:102ED000A8B9B4F91410B4F92400884201DAE673F1
:102EE00000E0E573A184E07B30B9A07C40F00100F4
:102EF000A07446F21030206321A001F04BF8B4F921
:102F00001600B4F92610814201DA267400E0257417
:102F1000E084207C38B9A07C204940F00200A074F5
:102F200042F250300860A07C032811D0607C082851
:102F300002D2206E0028BAD1627C19A0216E01F065
:102F400029F8607C092812D0A17CC80703D006E0CC
:102F500009206074F0E7E26A42F00802E262490880
:102F60002046C90703D1C16A41F01001E1624FF464
:102F7000AF706083A563A58270BD0000540000207F
:102F8000436F756E74657250616E456E636F6465F4
:102F9000722D2D3E25640D0A00000000D400002093
:102FA0003D3D3D3E48616C6C4F757454696D652DB7
:102FB0003E25645F5F496E6465782D3E2564200D73
:102FC0000A00000010B50E4CE06980688047607808
:102FD00008B9012060700B49C0B201EB8001084ABA
:102FE00051F8041C616218324968E16100211154F2
:102FF000401E2170C0B26070BDE81040FDF764BA99
:1030000010010020C8040020F8B5B020ADF8000081
:1030100003251C4F8DF8025010248DF8034069469B
:103020003846FDF7BBFC4020ADF8000048268DF87F
:10303000036069463846FDF7B1FCE002ADF80000D8
:103040008DF802508DF8034069463846FDF7A6FC1E
:103050002820ADF800008DF802500B4D8DF803408C
:1030600069462846FDF79AFCADF800408DF80360EC
:1030700069462846FDF792FC01210448FDF7E0FC73
:10308000F8BD000000080140000C014000023000C3
:103090007047000010B50C4CE0692062C06870B148
:1030A0000021217060624068E061FDF70DFA6078F0
:1030B000064A401CC0B26070616A42F82010206A63
:1030C0004068BDE81040004710010020C8040020FF
:1030D000F8B5002404211148FDF7E5FC4FF47840D1
:1030E00000901F230EA264210820FDF7DFFC4FF49F
:1030F00008654FF47F4600BFFFF710FE032801D09C
:10310000012800D10F2433460BA2B42112200095D0
:10311000FDF7CCFC0E2CEFD3F8BD0000000C0140F5
:103120002020444D582053656E6446756E632053CD
:103130004554204F4B202000444D583531323A0041
:103140000CB50021264801910091026842F48032BA
:1031500002604FF4A063026802F400320092019A08
:10316000521C0192009A12B9019A9A42F3D1026854
:10317000920333D5012100911A490A6842F01002E6
:103180000A600A6822F003020A600A6842F002023A
:103190000A604168416041684160416841F4806172
:1031A0004160416821F47C114160416841F4E811BB
:1031B0004160016841F08071016001688901FCD5BE
:1031C000416821F003014160416841F00201416022
:1031D0004168C1F381010229FAD10CBD00910CBDF7
:1031E0000010024000200240704700000F4810B558
:1031F000016841F00101016041680D4A11404160E0
:1032000001680C4A11400160016821F480210160CD
:10321000416821F4FE0141604FF41F018160FFF716
:103220008FFF05494FF00060086010BD001002409C
:103230000000FFF8FFFFF6FE08ED00E070B52C4D32
:103240000221284600F0ECFA2A4C80B102212846DF
:1032500000F02BF9284600F0DAFA27496080098847
:10326000084481B22846BDE8704000F000BC04214B
:10327000284600F0D5FA80B10421284600F015F95F
:10328000284600F0C6FA1D4960800988084481B2CA
:103290002846BDE8704000F0ECBB0821284600F04D
:1032A000BFFA90B10821284600F0FFF8FFF7F4FAC2
:1032B000284600F0B0FA124960800988084481B2BB
:1032C0002846BDE8704000F0D6BB1021284600F02B
:1032D000ECF8FFF705FB284600F09FFA09496080EB
:1032E0000988084481B22846BDE8704000F0C5BB9B
:1032F000002C0140000000200A0000200C000020EB
:103300000E0000201000002070B52A4D0221284632
:1033100000F086FA284C80B10221284600F0C5F85A
:10332000284600F074FA254960800988084481B273
:103330002846BDE8704000F09ABB0421284600F002
:103340006FFA80B10421284600F0AFF8284600F05B
:1033500060FA1B4960800988084481B22846BDE8AC
:10336000704000F086BB0821284600F059FA80B171
:103370000821284600F099F8284600F04CFA114937
:1033800060800988084481B22846BDE8704000F09A
:1033900072BB1021284600F088F8284600F03DFA5C
:1033A000094960800988084481B22846BDE8704018
:1033B00000F063BB00040040000000201200002069
:1033C00014000020160000201800002070B52A4DBF
:1033D0000221284600F024FA284C80B10221284618
:1033E00000F063F8284600F012FA25496080098849
:1033F000084481B22846BDE8704000F038BB042183
:10340000284600F00DFA80B10421284600F04DF85E
:10341000284600F0FEF91B4960800988084481B203
:103420002846BDE8704000F024BB0821284600F083
:10343000F7F980B10821284600F037F8284600F057
:10344000EAF9114960800988084481B22846BDE83C
:10345000704000F010BB1021284600F026F82846E6
:1034600000F0DBF9094960800988084481B22846E8
:10347000BDE8704000F001BB000C004000000020DF
:103480001A0000201C0000201E0000202000002048
:103490000029018802D041F0800101E021F0800183
:1034A00001807047C94301827047C9430182704758
:1034B0000029018802D041F0010101E021F0010161
:1034C000018070472DE9F04387B000244FF6FF7765
:1034D0004FF02308DFF80C93ADF81470ADF81080AE
:1034E000ADF81240ADF816408DF8184004A94846D2
:1034F00000F0C6FABC4DADF800400126ADF8026000
:103500002888ADF80600ADF808406946484600F046
:103510009BF96888ADF806006946484600F0DAF97C
:10352000A888ADF806006946484600F01DFAE8880C
:10353000ADF806006946484600F05AFA01214846AF
:10354000FFF7A6FF01214846FFF7B2FF01214846D9
:10355000FFF7A8FF01221E21484600F06DF9DFF8B1
:103560008C92ADF81470ADF81080ADF81640ADF83F
:10357000124004A9484600F083FA0122232148465C
:1035800000F072FAADF80040ADF802602889ADF89D
:103590000600ADF808406946484600F055F900219C
:1035A000484600F091F96889ADF80600694648463A
:1035B00000F090F90021484600F0CCF9A889ADF858
:1035C00006006946484600F0CFF90021484600F061
:1035D00009FAE889ADF806006946484600F008FA9D
:1035E0000021484600F036FA01214846FFF750FF17
:1035F00001214846FFF75CFF01214846FFF752FFD3
:1036000001221E21484600F017F9ADF81470784FDA
:10361000ADF81080ADF81640ADF8124004A9384658
:1036200000F02EFA01222321384600F01DFAADF8F1
:103630000040ADF80260288AADF80600ADF80840F9
:103640006946384600F000F90021384600F03CF9A0
:10365000688AADF806006946384600F03BF900215B
:10366000384600F077F9A88AADF806006946384672
:1036700000F07AF90021384600F0B4F9E88AADF894
:1036800006006946384600F0B3F90021384600F0DC
:10369000E1F901213846FFF7FBFE01213846FFF72B
:1036A00007FF01213846FFF7FDFE01221E213846A3
:1036B00000F0C2F840F2DC57ADF81470ADF81040DD
:1036C0004FF08049ADF81640ADF8124004A94846C5
:1036D00000F0D6F94FF06008ADF80080ADF8026058
:1036E000288BADF80600ADF808406946484600F062
:1036F000ABF80021484600F0E7F8ADF80260688BAF
:10370000ADF806006946484600F0E4F80021484656
:1037100000F020F9ADF80260A88BADF8060069460C
:10372000484600F021F90021484600F05BF9ADF869
:103730000260E88BADF806006946484600F058F98B
:103740000021484600F086F901214846FFF7A0FE17
:1037500001214846FFF7ACFE01214846FFF7A2FED3
:1037600001221146484600F067F8ADF81470214F69
:10377000ADF81040ADF81240ADF816408DF8184085
:1037800004A9384600F07CF9ADF80080ADF802607D
:10379000288CADF80600ADF808406946384600F0C0
:1037A00053F8688CADF806006946384600F092F888
:1037B000A88CADF806006946384600F0D5F8E88CCC
:1037C000ADF806006946384600F012F90121384686
:1037D000FFF76EFE0121384600F00EF807B0BDE895
:1037E000F0830000002C01400A000020000400408B
:1037F000000C004000340140002930F8441F02D082
:1038000041F4004101E0C1F30E0101807047808E58
:103810007047008F7047808F7047B0F84000704746
:1038200002460020138A92890B4202EA010202D06A
:10383000002A00D001207047002A828901D00A4363
:1038400000E08A438281704730B5028C22F0010289
:103850000284028C8388048B22F0020224F0730518
:103860000C882C430D8915434A882A43114DA842E0
:103870000BD0114DA84208D0104DA84205D0104DD4
:10388000A84202D00F4DA8420DD122F008054A8966
:1038900023F440732A4322F004058A882A438D8941
:1038A0001D43CB892B4383800483C988818602848E
:1038B00030BD0000002C01400034014000400140B8
:1038C0000044014000480140028B22F008020A43F4
:1038D0000283704770B5028C22F010020284028CC1
:1038E0008488038B0D8823F4E6464FF6FF7303EAC2
:1038F000052535430E8922F0200203EA06161643F9
:103900004A8803EA02123243104EB04202D0104EEF
:10391000B04215D122F080064A8924F4406403EABB
:103920000212324322F040068A8803EA021232432E
:103930008E8903EA86062643CC8903EA840434434D
:1039400084800583C9880187028470BD002C0140F2
:1039500000340140028B4FF6FF7322F4006203EA49
:10396000012111430183704770B5028C22F48072EB
:103970000284028C8488838B0D8823F073031D439B
:1039800022F400730E894FF6FF7202EA06261E43E8
:103990004B8802EA03233343104EB04202D0104E4C
:1039A000B04215D123F400664B8924F4405402EA56
:1039B0000323334323F480668B8802EA03233343D3
:1039C0008E8902EA06162643CC8902EA041434439F
:1039D00084808583C9888187038470BD002C014061
:1039E00000340140828B22F008020A438283704730
:1039F00070B5028C22F480520284048C8288838BFE
:103A00000D8823F4E6464FF6FF7303EA0525354398
:103A100024F400560C8903EA043434434E8803EA44
:103A200006362643094CA04202D0094CA04205D1DB
:103A300022F480448A8903EA8212224382808583A9
:103A4000C988A0F84010068470BD0000002C014019
:103A500000340140828B4FF6FF7322F4006203EAC8
:103A600001211143818370470185828270478186DD
:103A700070470187704781877047A0F840107047F2
:103A800030B502881B4B1C4C98420DD0A0420BD085
:103A9000B0F1804F08D0194DA84205D0184DA8426A
:103AA00002D0184DA84203D122F070054A882A435B
:103AB000154DA84206D0154DA84203D022F44075FA
:103AC000CA882A4302808A8882850A8802859842A9
:103AD0000AD0A04208D00E4A904205D00D4A90422A
:103AE00002D00D4A904201D1097A018601218182DA
:103AF00030BD0000002C01400034014000040040B3
:103B000000080040000C004000100040001400407D
:103B10000040014000440140004801401CB51B4CDE
:103B2000208D401C80B22085012804D03C2809D07B
:103B3000782810D011E00021FF20FEF795FE00212B
:103B4000FF2005E000210846FEF78EFE0021084612
:103B5000FEF7ACFE01E000202085218D0A20B1FB9C
:103B6000F0F200FB121000280FD1B4F9142008A0C5
:103B700000F010FA218BB4F91E00CDE90001D4E960
:103B80000D32218D09A000F005FA1CBD5400002063
:103B900025645F436F756E74657250616E456E6328
:103BA0006F6465722D2D3E25640D0A00692D3E253A
:103BB0006420757365722D3E2564204375727265AD
:103BC0006E742D3E256420706F696E7465722D3E93
:103BD0002564205370656564506F732D3E25642005
:103BE000200D0A00F8B51F20C3020090002518A27E
:103BF00064210820FCF75AFFFF261B4CFFF78EF8C4
:103C0000042808D0052809D003280DD0022809D09F
:103C1000012809D009E06078401C01E06078401E6E
:103C2000607002E0667000E00F2500216078FEF70A
:103C30003DFE62781421B420FCF721FC0E2DDDD36B
:103C40000020FCF77FFFBDE8F840FCF73DBC00001A
:103C50002020202054696C7446756E63204F4B20E1
:103C600020202020000000000801002038B500249A
:103C7000FFF73CF84FF47845FFF750F8042808D0D8
:103C8000052806D0032803D0022802D0012800D13D
:103C90000F241F2307A2642108200095FCF706FFCC
:103CA0000E2CE9D30020FCF74DFFBDE83840FCF7AF
:103CB0000BBC00005345542054494D45205550201D
:103CC0002620444F574E202F204C45465420262076
:103CD0005249474854000000704700001FB54FF498
:103CE000E13000900020ADF80400ADF80600ADF81A
:103CF0000800ADF80C000C20054CADF80A00694630
:103D0000204600F0B5F80121204600F069F81FBDFB
:103D1000003801401FB5134800904FF48050ADF8B3
:103D200004000020ADF80600ADF80800ADF80C0066
:103D30000C200D4CADF80A006946204600F098F8BA
:103D4000012240F22551204600F07AF8012240F28B
:103D50002771204600F074F80121204600F040F859
:103D60001FBD000090D003000048004070B5194C02
:103D70002021204600F03EF8E0B1204600F0CEF8C9
:103D80001549C0F300220023C8804A7062B10122A5
:103D90000A70124D8A88A854521C90B28880B0F5DF
:103DA000007F07D38B8005E0088118B98B8040F233
:103DB000FF10088140F227752946204600F021F8BF
:103DC000002806D029462046BDE87040002200F0B9
:103DD00037B870BD0048004000000020B404002047
:103DE0000029818902D041F4005101E021F4005101
:103DF000818170470246002012880A4200D00120CB
:103E0000704730B501F01F0201240025C1F34213B1
:103E100004FA02F2012B0FD0022B0FD0838A4FEA53
:103E200011210088134204FA01F400EA040001D0D1
:103E300000B10125284630BD8389F0E7038AEEE70B
:103E400010B5C1F3421301F01F040121A140012B61
:103E500007D0022B07D01430002A026805D00A438D
:103E600004E00C30F8E71030F6E78A43026010BD3A
:103E700030B50446008A85B00D464CF6FF71084007
:103E8000E98801432182A1894EF6F3100140A888F8
:103E90002A8910436A890A431043A081A08A4FF6F9
:103EA000FF410840A9890143A1826846FEF7D6FE7A
:103EB0001948844201D1039800E00298A1890904BD
:103EC00000EBC00101EB0010296801D5490000E0BA
:103ED0008900B0FBF1F06422B0FBF2F109010B099B
:103EE0006FF018056B4300EB8300A3891D044FF0AE
:103EF000320306D503EBC000B0FBF2F000F0070080
:103F000005E003EB0010B0FBF2F000F00F000843F7
:103F1000208105B030BD0000003801408088C0F32A
:103F200008007047C1F3080181807047F8B5174C4D
:103F30004FF6FF761825606A1F234168207801EB51
:103F40000011E16100960A6805EB00116088FCF73A
:103F5000ADFD2078B8B1401E2070606A21784FF620
:103F60001F024068334600EB0110E06100920268D6
:103F700005EB01116088FCF799FD0449627818315E
:103F800020788854F8BD606A007AE4E710010020C8
:103F9000FEE700000FB4054B10B503A9044A0298D0
:103FA00000F018F810BC5DF814FB0000794100081F
:103FB000B004002002E008C8121F08C1002AFAD18C
:103FC00070477047002001E001C1121F002AFBD199
:103FD000704700002DE9FF4F89B09B46044600253D
:103FE00006E025280BD05A460B999047641C6D1C9F
:103FF00020780028F5D10DB02846BDE8F08F0027C5
:10400000B8460122474900E0074314F8013F203B2E
:1040100002FA03F00842F7D120782E2819D114F8BB
:10402000010F47F004072A280ED06FF02F022078E6
:10403000A0F1300109290CD808EB880102EB4101FD
:1040400000EB0108641CF2E70A98641C50F8048B2A
:104050000A9020780028CED0642808D0692806D09D
:1040600075281ED05A460B9990476D1C58E00A9946
:104070004FF00A0901C90A91002802DA40422D21B5
:1040800002E0390504D52B218DF82010012103E031
:10409000F90704D02021F7E78A4608AE0DE0002199
:1040A000FAE70A994FF00A0901C90A91F7E7494668
:1040B000FCF76CF8303106F8011D0028F7D1ADEBA4
:1040C000060000F12009780701D44FF00108C84527
:1040D00002DDA8EB090000E000208046002706E092
:1040E00008A85A46C05D0B9990476D1C7F1C574528
:1040F000F6DB04E030205A460B9990476D1CB8F16E
:104100000001A8F10108F5DC05E016F8010B5A469C
:104110000B9990476D1CB9F10001A9F10109F4DC7C
:10412000641C65E709280100002240F2754306E09F
:104130000021491C89B29942FBD3521C92B282429F
:10414000F6D3704730B50B4900234FF4FA64CB85A2
:1041500000EB400509E08B8500BF8A8D521C92B2AE
:104160008A85A242F8D3401CC885C88D8542F2D802
:1041700030BD00000A00002070B5074D0446C1B2F2
:104180002846FFF7CFFE40212846FFF733FE0028E0
:10419000F9D0204670BD000000380140FEF74CFD0C
:1041A000FCF776FBFCF794FAFFF798FDFFF7B2FDFA
:1041B000FFF788F9FEF728FFFEF79CFBFCF732FDBE
:1041C000FEF7E2F8FCF780F9FEF76CFEFFF7A6FCBD
:1041D000FEF796FD6420FFF7B5FF0320FEF7B4F865
:1041E000F4E78AE83BF3A4F664F87AF93AFAC9FAF4
:1041F00037FB8FFBD8FB15FC4AFC77FC9FFCC2FC0D
:10420000E2FCFEFC18FD2FFD44FD58FD6AFD7BFD20
:104210008BFD9AFDA7FDB4FDC0FDCCFDD7FDE1FDF2
:10422000EBFDF4FDFDFD05FE0DFE15FE1CFE23FE5F
:104230002AFE30FE36FE3CFE42FE48FE4DFE52FE99
:1042400057FE5CFE61FE65FE6AFE6EFE72FE76FE45
:104250007AFE7EFE81FE85FE88FE8CFE8FFE92FE3B
:1042600095FE99FE9CFE9EFEA1FEA4FEA7FEA9FE61
:10427000ACFEAFFEB1FEB4FEB6FEB8FEBBFEBDFEA8
:10428000BFFEC1FEC3FEC5FEC7FEC9FECBFECDFE0E
:10429000CFFED1FED3FED5FED6FED8FEDAFEDBFE83
:1042A000DDFEDFFEE0FEE2FEE3FEE5FEE6FEE8FE0A
:1042B000E9FEEBFEECFEEEFEEFFEF0FEF2FEF3FE9C
:1042C000F4FEF5FEF7FEF8FEF9FEFAFEFCFEFDFE3A
:1042D000FEFEFFFE00FF01FF02FF03FF04FF06FFDB
:1042E00007FF08FF09FF0AFF0BFF0CFF0DFF0EFF82
:1042F0000EFF0FFF10FF11FF12FF13FF14FF15FF3A
:1043000016FF17FF17FF18FF19FF1AFF1BFF1CFFEF
:104310001CFF1DFF1EFF1FFF1FFF20FF21FF22FFAD
:1043200022FF23FF24FF25FF25FF26FF27FF27FF6E
:1043300028FF29FF29FF2AFF2BFF2BFF2CFF2DFF32
:104340002DFF2EFF2FFF2FFF30FF30FF31FF32FFF9
:1043500032FF33FF33FF34FF34FF35FF36FF36FFC4
:1043600037FF37FF38FF38FF39FF39FF3AFF3AFF91
:104370003BFF3BFF3CFF3CFF3DFF3DFF3EFF3EFF61
:104380003FFF3FFF40FF40FF41FF41FF42FF42FF31
:1043900043FF43FF44FF44FF45FF45FF45FF46FF02
:1043A00046FF47FF47FF48FF48FF48FF49FF49FFD7
:1043B0004AFF4AFF4BFF4BFF4BFF4CFF4CFF4CFFAC
:1043C0004DFF4DFF4EFF4EFF4EFF4FFF4FFF50FF83
:1043D00050FF50FF51FF51FF51FF52FF52FF52FF5C
:1043E00053FF53FF54FF54FF54FF55FF55FF55FF34
:1043F00056FF56FF56FF57FF57FF57FF58FF58FF0E
:1044000058FF59FF59FF59FF59FF5AFF5AFF5AFFEA
:104410005BFF5BFF5BFF5CFF5CFF5CFF5DFF5DFFC5
:104420005DFF5DFF5EFF5EFF5EFF5FFF5FFF5FFFA3
:104430005FFF60FF60FF60FF61FF61FF61FF61FF81
:1044400062FF62FF62FF62FF63FF63FF63FF63FF60
:1044500064FF64FF64FF65FF65FF65FF65FF66FF3E
:1044600066FF66FF66FF67FF67FF67FF67FF68FF1E
:1044700068FF68FF68FF68FF69FF69FF69FF69FF00
:104480006AFF6AFF6AFF6AFF6BFF6BFF6BFF6BFFE0
:104490006BFF6CFF6CFF6CFF6CFF6DFF6DFF6DFFC2
:1044A0006DFF6DFF6EFF6EFF6EFF6EFF6EFF6FFFA5
:1044B0006FFF6FFF6FFF70FF70FF70FF70FF70FF87
:1044C00071FF71FF71FF71FF71FF72FF72FF72FF69
:1044D00072FF72FF73FF73FF73FF73FF73FF73FF4E
:1044E00074FF74FF74FF74FF74FF75FF75FFEE02B5
:1044F000F7020003090312031B0325032E033703EE
:104500004003490352035C0365036E037703800392
:10451000890392039B03A403AD03B603BE03C70341
:10452000D003D903E103EA03F303FB0304040D04FE
:1045300015041D0426042E0436043F0447044F04CA
:1045400057045F0467046F0477047F0486048E04B5
:1045500096049D04A504AC04B404BB04C204C904BD
:10456000D004D704DE04E504EC04F304F9040005E8
:1045700006050D05130519051F0525052B05310534
:1045800037053D05420548054D05530558055D05B0
:10459000620567056C05710575057A057F0583055C
:1045A00087058B059005930597059B059F05A2053B
:1045B000A605A905AD05B005B305B605B805BB054B
:1045C000BE05C005C305C505C705C905CB05CD0595
:1045D000CF05D005D205D305D505D605D705D80515
:1045E000D905D905DA05DB05DB05DB05DB05DC05CF
:1045F000DB05DB05DB05DB05DA05D905D905D805C3
:10460000D705D605D505D305D205D005CF05CD05EF
:10461000CB05C905C705C505C305C005BE05BB0556
:10462000B805B605B305B005AD05A905A605A205F3
:104630009F059B059705930590058B0587058305C9
:104640007F057A05750571056C05670562055D05D1
:10465000580553054D05480542053D05370531050B
:104660002B0525051F05190513050D050605000574
:10467000F904F304EC04E504DE04D704D004C9040F
:10468000C204BB04B404AC04A5049D0496048E04C7
:1046900086047F0477046F0467045F0457044F04A3
:1046A00047043F0436042E0426041D0415040D049B
:1046B0000404FB03F303EA03E103D903D003C703B4
:1046C000BE03B603AD03A4039B03920389038003D7
:1046D00077036E0365035C0352034903400337030A
:1046E0002E0325031B03120309030003F702EE0246
:1046F000E402DB02D202C902C002B602AD02A40289
:104700009B02920289027F0276026D0264025B02C2
:1047100052024902400237022E0225021D021402F3
:104720000B020202FA01F101E801E001D701CE011A
:10473000C601BE01B501AD01A5019C0194018C012A
:1047400084017C0174016C0164015C0155014D011F
:1047500045013E0136012F012701200119011201F7
:104760000B010401FD00F600EF00E800E200DB00B1
:10477000D500CE00C800C200BC00B600B000AA0040
:10478000A4009E00990093008E00880083007E00A4
:10479000790074006F006A00660061005C005800D8
:1047A000540050004B004800440040003C003900D9
:1047B000350032002E002B002800250023002000A9
:1047C0001D001B00180016001400120010000E003F
:1047D0000C000B000900080006000500040003009F
:1047E00002000200010000000000000000000000C4
:1047F00000000000000000000100020002000300B1
:10480000040005000600080009000B000C000E0063
:10481000100012001400160018001B001D002000DC
:104820002300250028002B002E003200350039001F
:104830003C004000440048004B0050005400580029
:104840005C00610066006A006F00740079007E0001
:10485000830088008E00930099009E00A400AA00A7
:10486000B000B600BC00C200C800CE00D500DB001E
:10487000E200E800EF00F600FD0004010B01120168
:104880001901200127012F0136013E0145014D018B
:1048900055015C0164016C0174017C0184018C018F
:1048A00094019C01A501AD01B501BE01C601CE0177
:1048B000D701E001E801F101FA0102020B02140242
:1048C0001D0225022E0237024002490252025B02FB
:1048D00064026D0276027F02890292029B02A402A8
:1048E000AD02B602C002C902D202DB02E402EE024D
:1048F000DC05DB05DB05DB05DB05DA05D905D905BC
:10490000D805D705D605D505D305D205D005CF05E1
:10491000CD05CB05C905C705C505C305C005BE0541
:10492000BB05B805B605B305B005AD05A905A605D7
:10493000A2059F059B059705930590058B058705A7
:1049400083057F057A05750571056C0567056205A8
:104950005D05580553054D05480542053D053705DC
:1049600031052B0525051F05190513050D05060540
:104970000005F904F304EC04E504DE04D704D004D4
:10498000C904C204BB04B404AC04A5049D04960489
:104990008E0486047F0477046F0467045F04570461
:1049A0004F0447043F0436042E0426041D04150456
:1049B0000D040404FB03F303EA03E103D903D0036A
:1049C000C703BE03B603AD03A4039B03920389038D
:1049D000800377036E0365035C03520349034003BE
:1049E00037032E0325031B03120309030003F702F9
:1049F000EE02E402DB02D202C902C002B602AD023C
:104A0000A4029B02920289027F0276026D02640276
:104A10005B0252024902400237022E0225021D02A9
:104A200014020B020202FA01F101E801E001D701D0
:104A3000CE01C601BE01B501AD01A5019C019401E5
:104A40008C0184017C0174016C0164015C015501DD
:104A50004D0145013E0136012F01270120011901B9
:104A600012010B010401FD00F600EF00E800E20076
:104A7000DB00D500CE00C800C200BC00B600B0000C
:104A8000AA00A4009E00990093008E008800830075
:104A90007E00790074006F006A00660061005C00AF
:104AA0005800540050004B004800440040003C00B7
:104AB0003900350032002E002B002800250023008D
:104AC00020001D001B00180016001400120010002A
:104AD0000E000C000B000900080006000500040091
:104AE00003000200020001000000000000000000BE
:104AF00000000000000000000000010002000200B1
:104B00000300040005000600080009000B000C006B
:104B10000E00100012001400160018001B001D00EB
:104B200020002300250028002B002E003200350035
:104B300039003C004000440048004B005000540045
:104B400058005C00610066006A006F007400790024
:104B50007E00830088008E00930099009E00A400D0
:104B6000AA00B000B600BC00C200C800CE00D5004C
:104B7000DB00E200E800EF00F600FD0004010B019D
:104B800012011901200127012F0136013E014501C3
:104B90004D0155015C0164016C0174017C018401CB
:104BA0008C0194019C01A501AD01B501BE01C601B6
:104BB000CE01D701E001E801F101FA0102020B0286
:104BC00014021D0225022E0237024002490252023F
:104BD0005B0264026D0276027F02890292029B02EE
:104BE000A402AD02B602C002C902D202DB02E40294
:104BF000EE02F7020003090312031B0325032E0331
:104C000037034003490352035C0365036E037703D4
:104C10008003890392039B03A403AD03B603BE0381
:104C2000C703D003D903E103EA03F303FB0304043E
:104C30000D0415041D0426042E0436043F04470405
:104C40004F0457045F0467046F0477047F048604ED
:104C50008E0496049D04A504AC04B404BB04C204F1
:104C6000C904D004D704DE04E504EC04F304F90419
:104C7000000506050D05130519051F0525052B055E
:104C8000310537053D05420548054D0553055805D5
:104C90005D05620567056C05710575057A057F057B
:104CA000830587058B059005930597059B059F0553
:104CB000A205A605A905AD05B005B305B605B8055D
:104CC000BB05BE05C005C305C505C705C905CB05A0
:104CD000CD05CF05D005D205D305D505D605D70519
:104CE000D805D905D905DA05DB05DB05DB05DB05CC
:104CF000DC050000000000000000000000000000D3
:104D00000000000000183C3C3C1818001818000077
:104D10000000000000666666000000000000000061
:104D2000000000000036367F3636367F363600000B
:104D300000000018183C666030180C06663C181815
:104D40000000000070D8DA760C18306E5B1B0E0085
:104D50000000000000386C6C38606F66663B000035
:104D600000000000001818180000000000000000FB
:104D700000000000000C1818303030303018180CCB
:104D800000000000003018180C0C0C0C0C18183027
:104D900000000000000000361C7F1C3600000000F0
:104DA0000000000000000018187E18180000000025
:104DB0000000000000000000000000001C1C0C1897
:104DC0000000000000000000007E00000000000065
:104DD0000000000000000000000000001C1C00009B
:104DE000000000000006060C0C181830306060004F
:104DF00000000000001E333737333B3B331E0000FA
:104E000000000000000C1C7C0C0C0C0C0C0C0000B6
:104E100000000000003C6666060C1830607E000052
:104E200000000000003C6666061C0666663C00004A
:104E300000000000003030363636667F060600007F
:104E400000000000007E6060607C06060C780000B8
:104E500000000000001C18307C666666663C00009E
:104E600000000000007E060C0C18183030300000E6
:104E700000000000003C6666763C6E66663C000002
:104E800000000000003C666666663E0C18380000B4
:104E9000000000000000001C1C0000001C1C0000A2
:104EA000000000000000001C1C0000001C1C0C186E
:104EB0000000000000060C18306030180C060000DE
:104EC00000000000000000007E007E0000000000E6
:104ED00000000000006030180C060C183060000064
:104EE00000000000003C66660C181800181800004E
:104EF00000000000007EC3C3CFDBDBCFC07F00001B
:104F00000000000000183C6666667E66666600006B
:104F100000000000007C6666667C6666667C0000B9
:104F200000000000003C666660606066663C000051
:104F30000000000000786C66666666666C780000AB
:104F400000000000007E6060607C6060607E0000A9
:104F500000000000007E6060607C606060600000B7
:104F600000000000003C666660606E66663E000001
:104F70000000000000666666667E66666666000083
:104F800000000000003C181818181818183C000001
:104F9000000000000006060606060666663C0000E5
:104FA000000000000066666C6C786C6C6666000041
:104FB000000000000060606060606060607E000073
:104FC00000000000006363776B6B6B63636300003A
:104FD00000000000006363737B6F6763636300001E
:104FE00000000000003C666666666666663C00007F
:104FF00000000000007C6666667C60606060000007
:1050000000000000003C666666666666663C0C064C
:1050100000000000007C6666667C6C6666660000C8
:1050200000000000003C666030180C06663C000082
:1050300000000000007E1818181818181818000032
:10504000000000000066666666666666663C0000F4
:105050000000000000666666666666663C18000032
:1050600000000000006363636B6B6B363636000034
:10507000000000000066663418182C6666660000A2
:105080000000000000666666663C181818180000EC
:1050900000000000007E06060C183060607E0000F4
:1050A00000000000003C30303030303030303030E4
:1050B0003C000000006060303018180C0C06060040
:1050C00000000000003C0C0C0C0C0C0C0C0C0C0C2C
:1050D0003C0000183C6600000000000000000000DA
:1050E00000000000000000000000000000000000C0
:1050F000FF00000000181818000000000000000069
:10510000000000000000003C06063E66663E00000F
:10511000000000000060607C66666666667C0000D9
:10512000000000000000003C66606060663C00001B
:10513000000000000006063E66666666663E0000E9
:10514000000000000000003C66667E60603C0000DD
:1051500000000000001E3030307E30303030000063
:10516000000000000000003E66666666663E0606B9
:105170007C0000000060607C666666666666000013
:10518000000000001818007818181818187E000081
:10519000000000000C0C003C0C0C0C0C0C0C0C0C5B
:1051A0007800000000606066666C786C66660000DF
:1051B000000000000078181818181818187E000051
:1051C000000000000000007E6B6B6B6B6B630000E7
:1051D000000000000000007C6666666666660000EF
:1051E000000000000000003C66666666663C000049
:1051F000000000000000007C66666666667C6060F9
:10520000600000000000003E66666666663E0606B8
:1052100006000000000000666E70606060600000C4
:10522000000000000000003E60603C06067C0000BC
:10523000000000000030307E30303030301E000082
:10524000000000000000006666666666663E0000BC
:105250000000000000000066666666663C180000FC
:1052600000000000000000636B6B6B6B36360000C3
:105270000000000000000066663C183C6666000006
:10528000000000000000006666666666663C0C185A
:10529000F00000000000007E060C1830607E000068
:1052A00000000000000C1818183060301818180C96
:1052B00000000000001818181818181818181818E6
:1052C0001800000000301818180C060C18181830B8
:1052D000000000000071DB8E0000000000000000F4
:1052E00000000000202020202020202048656C7035
:1052F000202020202020202000000000202020202E
:10530000202041626F7574205573202020202020BA
:105310000000000020202020204D61696E206D6576
:105320006E7520202020202000000000202020205A
:1053300020202043616C656E646172202020202053
:105340000000000020202020202054656D70726530
:10535000747572652020202000000000202020208D
:1053600020444D58204164647265737320202020CE
:10537000000000002020202020204C616D70204F74
:105380004E2F4F46462020200000000020202020E5
:1053900054696D6520616E6420436F6C6F6B2020D3
:1053A0000000000020202020204D6F746F722043E9
:1053B0006F6E74726F6C2020000000002020796FE7
:1053C0006E796F6E2E74616F62616F2E636F6D20E8
:1053D00000000000202020202020205265747572DB
:1053E0006E202020202020200000000020202020EF
:1053F000457869743A2045585449202020202020BF
:10540000000000002020457869743A20525443205F
:10541000416C61726D2020200000000020202020BF
:105420002053544F50204D6F6465202020202020B1
:1054300000000000202020202020202053686F77CB
:1054400020202020202020200000000020202020DC
:1054500020202041646A75737420202020202020A1
:1054600000000000202020202020202054696D65AD
:1054700020202020202020200000000020202020AC
:10548000202020204461746520202020202020201E
:10549000000000002020202020202020416C61728C
:1054A0006D2020202020202000000000202020202F
:1054B00020202041626F7574202020202020202091
:1054C000000000002020202020202041726D627505
:1054D00073202020202020200000000020202020F9
:1054E0002020202041626F75742020202020202061
:1054F00000000000202020202020205374617274BE
:10550000202020202020202000000000202020201B
:105510002020202046756E6E79202020202020201B
:105520000000000020204C616D704F4E4F46462019
:10553000202020202020000020202020202020507B
:10554000414E20202020202020202020000000008C
:105550002020202020202054494C5420202020208E
:10556000202020200000000020202020202020419A
:1055700075746F20202020202020202000000000B3
:105580002020204D6F746F7220436F6E74726F6CA9
:10559000202020002020202053484F572054656DA4
:1055A0007072657475726520000000002020202054
:1055B00054656D707265747572652020202020001E
:1055C000202020202020202052657475726E20201B
:1055D0002020202000000000202020202020205318
:1055E000656E642020202020202020200000000064
:1055F00020202020202020526563656976652020C8
:105600002020202000000000202020444D58204170
:1056100064647265737320534554202000000000B9
:105620004056000800000020B4040000DC0100081F
:10563000D0570008B404002024040000C43F000830
:10564000A112C8C809E803F401F401D00702CBEEA7
:105650000202E145020406082D01020304041506B6
:105660000708092A010262015A070851AA7C0DA104
:105670009A04040124BB4C04632A0808A95A092E81
:1056800050D139CF0121135C534C080D0B0413A4E6
:10569000049B202C101A58109A44101A0C109AA42B
:1056A0001013E0039B2074101A94109A8C101A683F
:1056B000108BE452101A3C109AFC101A10109ABC6D
:1056C0003013E4021B2014101338013320091AECA4
:1056D0000C4BA1071C411304549B08A3101AD4209F
:1056E0008BC52F101A1C201AD43C32031A4C0C8B79
:1056F0006D3C1C1A34109AD910E93C1A64201A1017
:1057000080693CCB79043C9A7B10E93C1A7C209A56
:105710004C3CCB35023C9A3710E93C1A94205A880D
:105720003C1AAC0C0A19392C1AC4201AC42C5A027F
:105730002C0A19332C1ADC205AF02C1AF40C1A0BF0
:105740001809162C13E4528C081C032C0B188D0816
:105750002C130C559B08482C0B1885232C1A242C31
:105760005A742C1A380C8B952A1C1A50108BE53B56
:10577000101A68100A19B1D01A80201AA04C3204ED
:105780001A940C291829041A04E4E92C1AAC205A9A
:10579000EC781A64A4692C1A402C9A7C101A7C109C
:1057A0009A94101AB8101AC03CA94C1A2C5C4B18C9
:1057B000047829F08B212B1C1AD82C8BD130101A8D
:1057C000F0100B18412EC41308565B08644C4100BE
:0400000508000131BD
:00000001FF
